:020000040000FA
:1000000000000120D9030000E503000051020000B8
:10001000E90300005D020000630200000000000030
:1000200000000000000000000000000015030000B8
:10003000F103000000000000AD030000BD0300005C
:10004000F7030000B11B0100F7030000F7030000F5
:10005000F7030000F7030000F7030000F7030000B8
:10006000F7030000F703000081450100F91B0100C0
:10007000F7030000D11B0100F7030000F94700005F
:10008000F7030000F7030000F7030000F703000088
:10009000F7030000F7030000F7030000F703000078
:1000A000F7030000F7030000F7030000F703000068
:1000B000F7030000F703000000000000000000004C
:1000C000F7030000F7030000F7030000F703000048
:1000D000F7030000F7030000F703000000F002F848
:1000E00022F01AFF0AA090E8000C82448344AAF18F
:1000F0000107DA4501D122F00FFFAFF2090EBAE88D
:100100000F0013F0010F18BFFB1A43F0010318474B
:1001100010130500301305000A444FF0000C10F8CE
:10012000013B13F0070408BF10F8014B1D1108BF75
:1001300010F8015B641E05D010F8016B641E01F815
:10014000016BF9D113F0080F1EBF10F8014BAD1C65
:100150000C1B09D16D1E58BF01F801CBFAD505E083
:1001600014F8016B01F8016B6D1EF9D59142D6D3DD
:10017000704700000023002400250026103A28BF05
:1001800078C1FBD8520728BF30C148BF0B60704709
:100190006E2900F04387702900F0B78366290EF0BE
:1001A00028A165290EF025A167290EF022A1612959
:1001B0000EF021A103681B0A28BF41F080016929C4
:1001C00000F02883642900F02583752900F022833C
:1001D0006F2901F03F82782900F08383E92901F03B
:1001E000D981E42901F0D681F52901F0D381EF29E5
:1001F00001F03C82F82900F082830368DB0928BF04
:1002000041F08001632901F05A81732901F05F8177
:10021000E32901F07784F32901F07C840020704702
:100220001FB54EF0D9F89DE8030000F054FE00F031
:1002300035FE0400002000214EF0A2F8401C606052
:10024000002000214EF0B2F8E06000F00BFE1FBD70
:100250004FF0100308E04FF0200305E04FF03003AB
:1002600002E04FF0400300BFEFF308804FF00401BD
:1002700072460A4201D0EFF309809C46244B19686C
:1002800002680A60043142680A60043182680A60C8
:100290000431C2680A600431F0C147460F6004317E
:1002A0004F460F60043157460F6004315F460F60C0
:1002B000043102690A60083142690A6004318269C6
:1002C0000A600431C2690A600431034620334FF4E6
:1002D0000076324200D0043375464FF010063542A6
:1002E00000D148330C46103C2360EFF309820A60CA
:1002F0000431EFF308820A60043172460A60043167
:10030000EFF314820A606046014940F03FFFFEE7C8
:1003100030FD04001EF0040F0CBFEFF30880EFF374
:100320000980816911F8021C91BB01B590E80F109A
:10033000E047BDE800508CE80300244B93E806003A
:10034000914208BF704741B91EF0100F10D12049EB
:10035000086820F0010008600AE02CE9F00F1EF0A8
:10036000100F08BF2CED108AC1F838C081F822E0C8
:100370001A6092F82210906B61F0FF0E1EF0100FC1
:1003800008BFB0EC108AB0E8F00F80F3098870471E
:10039000104A13689942FAD801B552F821C00FC823
:1003A000E047BDE80050CCF80000704701B543F0CD
:1003B000C5FABDE80140EFF3098CBEE701B543F093
:1003C0007BFFBDE80140EFF3098CB6E72002002077
:1003D00034EF00E050FD040007488047074880479D
:1003E00007480047FEE7FEE7FEE7FEE7FEE7FEE719
:1003F000FEE7FEE7FEE7FEE785410100011F04007E
:10040000DD0000007047000010B500F047FD001D42
:1004100010BD00BF6DDF040022F0A6BD0844401EE1
:10042000491E884370470821001DF7E72DE9F04178
:1004300017460E460446FFF7F6FFA042054633D99D
:10044000002F1CBF06F10C0022F0E6FD3046746858
:10045000F4B12168A94217D305F1080291423CBFCB
:100460006168416007D3626861194A602268521B63
:100470000A6041602560002F1CBF06F10C0022F0CD
:10048000A1FE201DBDE8F08120466468002CE0D16B
:100490002946304600F00BFD0028D7D1002F1CBFA5
:1004A00006F10C0022F08EFE0020BDE8F08110B5B0
:1004B000044600F0EEFC01682046BDE81040012231
:1004C000B4E770B516460D46041F002808BF70BD7E
:1004D000002E1CBF05F10C0022F09EFD2B46586833
:1004E000002818BFA04238BF0346F8D31968CA18BD
:1004F000A24218BF5C6003D122681C4611441960F7
:1005000021680A19824218BF606004D142686260A3
:10051000006808442060002E1CBF05F10C0022F08A
:1005200051FE70BD10B5044600F0B3FC01682046D2
:10053000BDE810400122C4E70844401E491E88431C
:1005400070470821001DF7E72DE9F0410F4680466E
:10055000041F00F09EFC066807B3B8F1000F384690
:1005600022D0FFF7EEFFB84205463CBF0020BDE8B1
:10057000F08106F10C0022F04FFD2268AA4238BF3C
:10058000314615D3511B082931D36019002240F898
:10059000041B31462560FFF794FF28E04046FFF733
:1005A000C1FF0020BDE8F081BDE8F041FFF77FBF4B
:1005B0004868002818BFA04238BF0146F8D3131975
:1005C00083421BD103681A44954217D8531B082B4A
:1005D0000AD3436862195360236800681844401BBB
:1005E000106025604A6002E022604068486006F1C1
:1005F0000C0022F0E7FD201DBDE8F081002231460D
:100600003846FFF713FF05000AD041462068021F55
:10061000284600F01BFB00223146201DFFF751FF4A
:1006200006F10C0022F0CEFD2846BDE8F08153EA29
:10063000020C00F069802DE9F04B4FF00006002B12
:100640001FBFB3FA83F503FA05F424FA05F65E40FA
:1006500012BF1643B2FA82F502FA05F4C5F120057D
:100660001EBF22FA05FC44EA0C04203556EA044C6D
:100670004FEA144418BF641C4FF000084FF0000903
:10068000904271EB030C39D3002919BFB1FA81F7FD
:1006900001FA07F6B0FA80F700FA07F6C7F120076B
:1006A0001EBF20FA07FC46EA0C062037B6FBF4FC16
:1006B000A7EB0507103F07F01F0BCBF120062CFA24
:1006C00006F60CFA0BFB44BFB3460026202FA4BF4E
:1006D0005E464FF0000B5BEA060C08BF4FF0010BC3
:1006E00019EB0B0948EB0608ABFB027C06FB02CCBE
:1006F0000BFB03CCC01B71EB0C01C1E70B460246A0
:1007000041464846BDE8F08B13B54FF000004FF06E
:100710000001AFF30080BDE81C4070471CB50C46DB
:10072000064B7B4469460090204600F09EFE04463E
:100730000020694600F0ACFE20461CBD6B0D000099
:100740007CB51D4616460C00009001D02044401E8A
:10075000074B7B442A4669460190304600F085FEEF
:1007600005461CB10020694600F092FE28467CBD7B
:10077000450D000070B5044685690068C10601D5C5
:10078000302600E02026C00707D070BDD4E9012143
:1007900030469047206A401C20626D1EF6D570BD21
:1007A00070B5044685690078C00707D170BDD4E9EB
:1007B000012120209047206A401C20626D1EF6D542
:1007C00070BD70B50C460546012A05D02878800614
:1007D00000D5EA69002302E0012305E05B1C934297
:1007E00002D2E05C0028F9D1A869E618C01AA86115
:1007F000286A184428622846FFF7BCFF04E0D5E9C0
:10080000012114F8010B9047B442F8D32846FFF7B2
:10081000C7FF70BD2DE9F041064600241068752918
:10082000314616A510D000F08EFB002802DA4042B7
:1008300013A507E031688A0701D512A502E0490730
:1008400004D511A5012401E000F086FB00210A2255
:1008500006F1240709E0B0FBF2FCB0FBF2F302FB67
:100860001C00303078541846491C0028F3D1234628
:100870002A463046BDE8F04100F077BB000000009A
:100880002D0000002B00000020000000F0B40D46F9
:100890000188090502D5214C7C4402E01F4C7C44B0
:1008A0000E34002100F1240608E002F00F071209BF
:1008B000E75D42EA03721B097754491C52EA0307B9
:1008C000F3D102780023120704D5702D06D009B1A8
:1008D000022311342246F0BC00F047BB0123103440
:1008E000F8E770B504460D462146106800F034FB69
:1008F000024629462046BDE870400023C6E7D21DC7
:1009000022F00703D3E90023C0E70368126843F02D
:10091000200303600823C3610023B7E75EDB040004
:100920002DE9F05F894604464FF0000ADFF874B104
:10093000FB44C0F820A02046E1688847002874D016
:10094000252806D0D4E901219047206A401C206266
:10095000F1E700265F462046E168884720280546E3
:1009600007DB312D05D2781910F8200C08B10643A9
:10097000F1E7B00701D526F00406C4F81CA0002753
:10098000C4F818A02A2D09D028464DF0F1FC38B340
:1009900004EB8708303DC8F8185019E059F8041BDB
:1009A000204604EB87029161E1688847012F0546E4
:1009B00018D1E069002820DA26F020061DE0D8F8DA
:1009C000180000EB800005EB40003038C8F8180034
:1009D0002046E168884705464DF0CAFC0028EED164
:1009E000012F0AD02E2D08D12046E16888477F1CB0
:1009F0000546022F46F02006C4DBA069002803DA72
:100A0000404246F00106A061F00701D026F0100632
:100A10006C2D0BD0682D09D04C2D39D06A2D35D0D6
:100A2000742D35D07A2D33D016E038E0E1682F46AA
:100A300020468847B842054609D16C2F26D04FF48E
:100A40008060E168064320468847054604E06C2F35
:100A50001AD04FF4807006430DB3A5F14100192858
:100A600002D8203546F400664A46294620462660CC
:100A70004E46FFF78DFB80B101280BD0F61D26F006
:100A8000070000F1080956E74020E4E78020D8E796
:100A90000020D6E706F104094DE7284652E7206A10
:100AA000BDE8F09FEEDA040040EA010310B59B07B1
:100AB0000FD1042A0DD310C808C9121F9C42F8D0C8
:100AC00020BA19BA884201D9012010BD4FF0FF3079
:100AD00010BD1AB1D30703D0521C07E0002010BD8F
:100AE00010F8013B11F8014B1B1B07D110F8013B1B
:100AF00011F8014B1B1B01D1921EF1D1184610BDFC
:100B000010B5431C02E010F8011B71B18107FAD146
:100B10004FF0013202C88C1A8C4314EAC211F9D08A
:100B2000C01A0A0603D0C01E10BDC01A10BD0A04A8
:100B300001D0801E10BD0902FCD0401E10BD032A4A
:100B400040F2308010F0030C00F0158011F8013BEA
:100B5000BCF1020F624498BF11F801CB00F8013BD1
:100B600038BF11F8013BA2F1040298BF00F801CB95
:100B700038BF00F8013B11F0030300F06780083A2A
:100B8000C0F0088051F8043B083A51F804CBA0E8C3
:100B90000810F5E7121D5CBF51F8043B40F8043B18
:100BA000AFF30080D20724BF11F8013B11F801CB4D
:100BB00048BF11F8012B24BF00F8013B00F801CB1E
:100BC00048BF00F8012B7047431A28BF9A427FF6AE
:100BD000B6AF10441144032A40F2268010F0030FF0
:100BE0001EBF11F8013D521E00F8013D10F0030F29
:100BF0007FF4F6AF11F0030300F06D80083AC0F007
:100C00000B8051F8043D083A51F804CD40F8043DFA
:100C100040F804CDFFF7F3BF121D5CBF51F8043D4F
:100C200040F8043DAFF30080D20724BF11F8013D26
:100C300011F801CD48BF11F8012C24BF00F8013D87
:100C400000F801CD48BF00F8012C704710B5203ADC
:100C5000C0F00B80B1E81850A0E81850B1E8185067
:100C6000A0E81850203ABFF4F5AF5FEA027C24BF39
:100C7000B1E81850A0E8185044BF18C918C0BDE822
:100C800010405FEA827C24BF51F8043B40F8043BEB
:100C900008BF7047D20728BF31F8023B48BF11F8A0
:100CA000012B28BF20F8023B48BF00F8012B7047FA
:100CB000431A28BF9A427FF6C9AF1044114410F07E
:100CC000030F1EBF11F8013D521E00F8013D10F048
:100CD000030F7FF4F6AF103AC0F00A8010B531E987
:100CE000185020E91850103ABFF4F9AFBDE8104091
:100CF000530724BF31E9081020E9081044BF51F818
:100D0000043D40F8043D12F0030F08BF7047D207BE
:100D100028BF31F8023D48BF11F8012C28BF20F848
:100D2000023D48BF00F8012C704702F0FF0343EA80
:100D3000032242EA024200F00AB802F0FF0343EA4B
:100D4000032242EA024200F024B84FF000020429D4
:100D5000C0F0128010F0030C00F01B80CCF1040CEA
:100D6000BCF1020F18BF00F8012BA8BF20F8022B1E
:100D7000A1EB0C0100F00DB85FEAC17C24BF00F8C4
:100D8000012B00F8012B48BF00F8012B70474FF0F2
:100D9000000200B5134694469646203922BFA0E8CB
:100DA0000C50A0E80C50B1F12001BFF4F7AF0907D7
:100DB00028BFA0E80C5048BF0CC05DF804EB8900C8
:100DC00028BF40F8042B08BF704748BF20F8022B0B
:100DD00011F0804F18BF00F8012B70470000000091
:100DE00030B44FF0013C50F8042B51F8043BCCFADE
:100DF00052F4D51A20D1FCB950F8042B51F8043B19
:100E0000CCFA52F4D51A17D1B4B950F8042B51F8D2
:100E1000043BCCFA52F4D51A0ED16CB950F8042B1D
:100E200051F8043BCCFA52F4D51A05D1002CDAD093
:100E300030BC4FF00000704729BAB1FA81F111F0CF
:100E40001801D1F120008440F2D1CA40CB4012F009
:100E5000FF0213F0FF0330BCD01A70477047704791
:100E60007047000070B5064C7C44064D7D4403E09D
:100E7000206820448047241DAC42F9D170BD000099
:100E800014070500280705000048704710030020DC
:100E9000704710B5FFF7F8FF083010BD10B5FFF729
:100EA000F3FF203010BD704770477047704738B56A
:100EB00004460A4600206946AFF30080002808BFB8
:100EC00038BD02460099204600F0ECFB012038BDF9
:100ED000012000F0C0BEF8B5AFF300800546002049
:100EE0000C46102000BF0646A819A0420DD9324674
:100EF00069460020AFF30080070008BF00F0ABFE9A
:100F00000098A04218BF0546C419FFF7C2FF05604C
:100F10000746F01D20F007004619284600F00AF8A1
:100F2000B44208BFF8BDA21B31463868BDE8F8409E
:100F300000F0B8BB00210160C0E901100C3022F0C4
:100F4000C7B81020704709684A0501D540B27047FC
:100F5000C905FCD500B2704709684A0501D5C0B281
:100F60007047C905FCD580B270472DE9F0470D46A2
:100F700099469246044600F124080168880604D583
:100F8000E06921F01001216000E00120A84201DDAC
:100F9000471B00E00027A1697A1902EB0900081A33
:100FA000A0612078C00602D42046FFF7E3FB0026AC
:100FB00008E0D4E901211AF806009047206A401C95
:100FC000761C20624E45F4DB2078C0060AD5204608
:100FD000FFF7D0FB06E0D4E9012130209047206ADA
:100FE000401C2062381EA7F10107F4DC07E0D4E9B9
:100FF000012118F805009047206A401C2062281E35
:10100000A5F10105F3DC2046FFF7CAFB20780006B6
:1010100002D50220BDE8F0870120FBE711680268D5
:10102000006A530501D508700AE0D30501D5088090
:1010300006E0130603D5C217C1E9000200E008600C
:10104000012070472DE9FF4F0C461E464FF0FF3739
:101050008BB0D2E90001DDF860800A908A46C1F3C6
:101060000A5505B93D46002108464FF00000BAF187
:10107000000F00F4400005DA00EB80004FF440015F
:1010800001EA50004FEA9059B9F1010F00DDB9466D
:101090000A9850EA4A000ED044F61050A5F2FF35E7
:1010A00045432F14B8F1000F1ED07542291E1EDDD6
:1010B000C9F100021CE0B8F1010F4FF0000001D0AF
:1010C000302103E0F24305E02154401CB042FBDB39
:1010D00030460022002121540B99C1F80880C1E953
:1010E00000200FB0BDE8F08FBD1B6D1CDEE74A4647
:1010F00000DA694206A800F011FD06AB93E807008C
:1011000003AB83E8070050460A994CF051FD8DE887
:101110000700A0F500501F3800900398002D0ADD4D
:1011200042F21F014A460844002303A9039068467F
:101130004CF0BAFF09E0A0F500504A461F380023E2
:1011400003A9039068464CF0C4FF8DE80700000433
:10115000000C03D04FF0FF30410800E01046B8F11A
:10116000000F03D00022009215461EE0751E05D424
:1011700000F0BAFA303262556D1EF9D5B34601223D
:10118000084302D000227F1C04E02078302801D1DF
:1011900000227F1E002A099784D01DE0112D07DA56
:1011A00000F0A2FA303262556D1C50EA0102F5D10E
:1011B000084302D00098C8B10EE00021681E05E087
:1011C000235C625C63542254401E491C8142F7DB5D
:1011D000AB46A81B401E0990002004F80B000B989A
:1011E000099AC0F80880C0E9002B7AE711264FF071
:1011F000000857E72DE9F04F88460446D21D22F03B
:10120000070191B0D1E90001CDE90A014DF098F84C
:1012100002460B98C00F01D02D2007E020688107FF
:1012200001D52B2002E0202101EAC000032A099009
:1012300001D0072A05DB03464146204600F018FC92
:101240000BE12078800601D5E06900E00620B8F1C6
:10125000650F814606D0B8F1660F18D0B8F1670F58
:1012600070D131E00020B9F1110F009001DB1123A2
:1012700001E009F101030AAA01A90CA8FFF7E2FEA7
:10128000DDE90C70002609F10105834647E00120E5
:101290004B4600904FF000470AAA01A90CA8FFF79F
:1012A000D1FEDDE90DB00C995D46002610B909F1BB
:1012B00001000D18B9EB050003D4C0F1FF3609F1A8
:1012C0000105A5EB09002BE0B9F1010F01DA4FF0A0
:1012D00001090020B9F1110F0090484601DD1123EA
:1012E00000E003460AAA01A90CA8FFF7ABFEDDE95E
:1012F0000C704D4600268346207800070AD4AB4583
:1013000000DA5D4601A8012D04DD411911F8011C28
:10131000302907D04F4502DA17F1040F04DA012013
:1013200082460FE06D1EEEE7002F02DCED1B3E440F
:1013300003E0781CA84200DD7D1CB81B00F1010A07
:101340004FF000472078000703D4AA4501DB4FF097
:10135000FF3A0021B7F1004F0DF143088DF843101B
:1013600024D002202B23002F01DA7F422D230A21D3
:10137000021EA0F1010000DC5FB197FBF1FC97FBBE
:10138000F1F201FB1C7C17460CF1300C08F801CD82
:10139000EEE7A8F1010003702188090501D5452178
:1013A00000E06521A0F1010800F8011C09980FA9CF
:1013B000A1EB0807FF1D00B10120411901EBEA7004
:1013C000A1693844081A401EA0612078C00602D4E2
:1013D0002046FFF7CFF9099828B1D4E901219047B9
:1013E000206A401C20622078C00622D52046FFF7E4
:1013F000C1F91EE0002E04DBB34502DD01A8805DCB
:1014000000E03020D4E901219047206A401C20628E
:10141000761CAAF101005FEA000A0AD1FFF73EFD3F
:10142000C0680168405CD4E901219047206A401CF3
:101430002062281EA5F10105DCDC07E0D4E90121CA
:1014400018F8010B9047206A401C2062381EA7F153
:101450000107F3DC2046FFF7A3F9032011B041E6B2
:1014600001694A1C02610878704700B58FB0CDE968
:1014700001310021059105497944CDE90310114658
:101480006846FFF74DFA0FB000BD0000E5FFFFFF13
:101490000A6802F8010B0A607047D1E900239A42FA
:1014A00002D2531C0B601070704710B5436913B122
:1014B000AFF3008001E0FFF784F9012010BD12783E
:1014C00000F124010A7000224A700122EDE7116840
:1014D0004FF0FF32E9E700002DE9FF5F15468A462D
:1014E0000446DFF8AC80F8440027D8E900103E46F7
:1014F000CDE9001010E03AF816106A4602A800F094
:101500007FFB411C07D02178890603D5E269391891
:1015100091420DD80744761C2078800602D5E069F8
:10152000B84205DDAE42E6DB3AF816000028E2D10B
:10153000A069C01BA0612046FFF71CF9D8E9001084
:10154000CDE90010002017E03AF818106A4602A80A
:1015500000F056FBB0F1FF3F81460BD000250DF1A6
:10156000080B05E0D4E901211BF8050090476D1C2C
:101570004D45F7D308F10100B0428046E4DB206A14
:10158000384420622046FFF70BF9BDE8FF9F0000BA
:101590004ACF04002DE9F0418046D21D22F0070217
:1015A0000025D2E90002F52915A614D0011E72F11A
:1015B000000106DA0023D0EB030063EB020211A660
:1015C00008E0D8F800108B0701D50FA602E0490704
:1015D00001D50EA601251146002408F1240704E0D8
:1015E00000F082F830323A55641C50EA0102F7D11B
:1015F0002B46324621464046BDE8F041FFF7B5BCD8
:10160000000000002D0000002B0000002000000062
:1016100030B4002100F1240408E002F00705D208EC
:10162000303542EA4372DB086554491C52EA03052F
:10163000F3D10468002310A2250708D504F0200484
:101640000C4304D0C46901230CA2641EC46130BCE5
:10165000FFF78BBC10B5044621461068FFF77CFCF1
:1016600002462046BDE810400023D1E7D21D22F0FB
:101670000701D1E90023CBE70000000030000000A3
:1016800010B5002000F0E0FAAFF30080BDE8104094
:10169000012021F0B1BD801A0844401E491E884334
:1016A0001044704770B5144605468C464368002BBD
:1016B00018BF634538BF1846F8D302681044604528
:1016C00008D06646604604220821FFF7E4FF811B2C
:1016D0008446641A2946CCF80040BDE870400022D8
:1016E0000CF10400FEF7EDBE30B5B0F10A0271F165
:1016F00000034FEA900E4EEA817EB0EB0E0061EBE4
:1017000091014FEA101E4EEA017E10EB0E0041EBF4
:1017100011114FEA102E4EEA016E10EB0E0041EB54
:1017200011214FEA104E4EEA014E10EB0E0041EB34
:101730001141401841F100014FEAD00040EA4170E8
:101740004FEAD1014FEA810444EA907410EB80051E
:1017500044EB01046D1944EB0404521BA3414FF008
:10176000000348BF0A3200D530BD401C41F10001E2
:1017700030BD00002DE9F04F04460D46D21D22F089
:10178000070089B0D0E90097484639464CF0D8FDAB
:101790000246F80F01D02D2307E02068810701D50C
:1017A0002B2302E0202101EAC0038DF820300BB189
:1017B000012000E00020032A824601D0072A04DB32
:1017C0002946204600F054F93FE12078800601D4F4
:1017D0000D2500E0E569C7F30A560D2D49DA002111
:1017E0004FEA175B08464FF00000002F00F440005E
:1017F00007DA00EB80004FF4400100EBD07001EA03
:1018000060008115012901DD4FF0FF3100224FEA10
:10181000850CBCF1180F06D31346ACF118004FF03D
:101820008052C24003E04FF4801323FA0CF30CF112
:101830000C0CBCF1200F04D3ACF1200C09FA0CF015
:1018400001E007FA0CF000294FF0004801DD18B95B
:101850000FE00ED140450CD319EB02095F4121B9CD
:10186000404502D19F4329EA0209BBEB175F00D034
:10187000761C2088000502D57B48784402E07A482F
:101880007844193808AA302302F80A30037C0AF198
:101890000101002E0AF1020A53546A4602DC4FF09D
:1018A000300101E04FF031014FF001088DF80010D8
:1018B00002D0A6F2FF3603E059EA470100D06B4E92
:1018C000002D02DC2178090704D54FF002082E21F3
:1018D0008DF80110C44600210BE0C7F303433F011C
:1018E000C35C491C6D1E02F80830052908F1010887
:1018F00001DA002DF1DC00210CE000EB1973491C2A
:101900001B786D1E082902F808304FEA091908F102
:10191000010801DA002DF0DC21688B0602D516E003
:10192000A8F10108E04505DD02EB080313F8013CCE
:10193000302BF5D0B8F1000F09DD02EB080313F8E6
:10194000013C2E2B03D1090701D4A8F10108002D79
:1019500005DD3E2102F808106D1E08F10108407CEB
:10196000002E02F8080008F1010804DA2D20764262
:1019700002F8080002E02B2002F808000A214FF4C8
:101980007A70864208F101080BDB96FBF0F33033E6
:1019900002F8083096FBF0F308F1010800FB13662B
:1019A00001E0642E0CDB642096FBF0F3303302F888
:1019B000083096FBF0F308F1010800FB136601E024
:1019C0000A2E06DB96FBF1F0303002F8080008F131
:1019D000010896FBF1F001FB1060303002F80800BE
:1019E000A16908F1010808EB050202EB0A00081AD8
:1019F000A0612078C00602D42046FEF7BBFE216A13
:101A000008AE01EB0A00206204E0D4E9012116F8D7
:101A1000010B9047BAF1010AF7D22078C00602D52F
:101A20002046FEF7A7FE6E4609E016F8010B3E2899
:101A30000FD0D4E901219047206A401C2062B8F100
:101A40000108F2D22046FEF7ABFE09B00320BDE844
:101A5000F08F206A2844206203E0D4E9012130207D
:101A600090476D1EEBD3F8E7D1CB040002FCFFFFDB
:101A70002DE9F0411F46044603260168072A01F4B8
:101A8000006004DB08B116A505E016A503E008B167
:101A900015A500E015A521F010002060A069C01E6A
:101AA000A0610FB1401EA0612046FEF763FE4FB15A
:101AB000D4E9012138469047206A401C2062C01CAE
:101AC000206206E0206AFAE7D4E9012115F8010B4B
:101AD0009047761EF8D22046FEF762FEBDE8F08100
:101AE0004E414E006E616E00494E4600696E6600C2
:101AF00010B5436913B1AFF3008001E0FFF7ECFCD0
:101B0000012010BD128800F1240182840022C284C9
:101B10000122EDE711684FF0FF32E9E72DE9F047C8
:101B2000814616468AB0354878440DC88DE80D00C8
:101B300032487844801C03AC0DC884E80D0041F69F
:101B40009B300844372190FBF1F290FBF1F5A5F1B1
:101B5000800501FB12041B3C02D56442012000E019
:101B60000020DFF898A080460027FA44AAF1BE0AB8
:101B70000EE0E0070AD03246684607EB4701012332
:101B80000AEB81014CF0A5FA8DE8070064107F1C78
:101B9000002CEED1194F7F44AE3F19E0E80715D075
:101BA00007EB04100DF1180A90E80E008AE80E0009
:101BB000C068F04201D1981908903246012306A965
:101BC00003A84CF086FA03AB83E807006D10641C91
:101BD000002DE3D14FF0010332466946B8F1000F02
:101BE00003A802D04CF060FA01E04CF072FAC9E9A7
:101BF0000001C9F808200AB0BDE8F087B4C90400A4
:101C00002DE9F04116460C460546FEF7FDFB03683C
:101C100093F80101012807D0FF2C12D8185D80B17C
:101C200001202C70BDE8F081D3F80701324621462F
:101C300003F20713C7182846BC46BDE8F04100234D
:101C400060474FF0FF30EDE710B500F019F8BDE840
:101C5000104000F00FB810B500F02AF8BDE81040B1
:101C600000F008B810B5FFF714F90068BDE810409F
:101C700000F046B8002801D021F0BEBA704700003D
:101C800010B5002102A000F040F8012010BD0000B6
:101C9000534947414252543A2041626E6F726D611E
:101CA0006C207465726D696E6174696F6E000000FE
:101CB00010B5012805D0002103A000F026F801206E
:101CC00010BD09A1F8E7000053494752544D454D56
:101CD0003A204F7574206F662068656170206D65CD
:101CE0006D6F7279000000003A2048656170206DC8
:101CF000656D6F727920636F7272757074656400C0
:101D000010B50C3021F0A2F910BD70B505460C4697
:101D10000A2000E06D1C21F071FA35B12878002806
:101D2000F8D102E0641C21F069FA14B1207800288F
:101D3000F8D1BDE870400A2021F060BA40F20001FD
:101D400040F200024AF21860C0F20001C0F2000244
:101D5000C2F2000000294FF6000118BF104640F201
:101D60000002C2F20001C0F2000218BF1146FEF7E5
:101D700057BA000045F6B851C2F2000188677047B3
:101D8000002908BF70478878202845F6B850C2F26D
:101D900000002CBF006FC06E82680846104700002C
:101DA00080B545F6B8514EF65842C2F20001C0F275
:101DB0000402C1E91B2281F87C0043F2FD5143F289
:101DC000AD520420C0F20201C0F2020208F02EF966
:101DD00043F2E5410020C0F20201BDE8804003F07B
:101DE00073B900006FF00A021B2902D01D2918BF29
:101DF0000022104412F0ACBDB0B584B045F6B85422
:101E0000C2F20004606740F2B420C2F20000006831
:101E1000858806F023FB0438A8420CDA616F51B1C3
:101E200000204FF01972ADF80E0000928DF80C00F2
:101E300002906846884704B0B0BD000010B5013874
:101E400080B221F033FCD0B1044690F83500B0B137
:101E500094F83400002818BF10BD092021F0DAFBE7
:101E600068B103460020012284F835001E20187254
:101E70002068018B0420BDE8104008F035B810BD83
:101E800045F6386001210022C2F2000080F8AC1053
:101E9000C0F8A82045F6B852C2F2000202600185DF
:101EA0000221A0F860100321A0F898104EF67441AA
:101EB000C0F20401D16602F12401816302F14801FC
:101EC000016792F87C1080F8301080F8681080F874
:101ED000A0107047B0B582B004460B200D4621F02B
:101EE00099FB70B10346457202200021012218724D
:101EF00003201880280A987200200090204621F0C4
:101F0000C5FF02B0B0BD000045F638604EF6B841DE
:101F1000C2F20000C0F20401C0F8A810704700002F
:101F200010B5044612F0F0FD45F6E860C2F200007C
:101F30000168F1B1208A0A8A904201D2002219E098
:101F40000B682BB31A8A90420A4613D3196809B357
:101F50000A8A90421A460DD30B68CBB11A8A904276
:101F60000A4607D31968B9B10A8A90421A46E7D2DD
:101F700000E0002245F6E8602146C2F2000012F0BF
:101F800061FD012022F076FBBDE8104012F0D8BDC3
:101F90000A46EFE71A46EDE71A46EBE745F6E86131
:101FA000C2F2000108617047B0B545F60075441EE5
:101FB000C2F2000555F82400002808BFB0BD12F099
:101FC000B3FB002045F82400B0BD0000B0B50C46BE
:101FD000054603F095F845F6007104EB4403C2F2A0
:101FE0000001CA6802EB43021279904208D301EB68
:101FF000850050F8040C00281CBF30F81400B0BD58
:102000000020B0BD2DE9F04F83B045F6007B471EA0
:102010000C460546C2F2000B5BF827604EB99BF8F0
:102020001400400012F054FB064600284BF827002D
:1020300023D02CB39BF81400F8B14FF000094FF0F7
:10204000100AE846002700BF21883180218879B135
:102050008DF80870ADF800508DF802A0ADF80610AC
:10206000DBF810104046ADF8049088479BF8140048
:102070000137023602348742E6D303B0BDE8F08F61
:102080009BF8140041003046FEF75FFE03B0BDE848
:10209000F08F000045F60073C2F20003C3E903129B
:1020A00044F2A921187545F6E860C2F20000C0F2BA
:1020B000020141617047000045F60073C2F200035F
:1020C00003EB800050F8040C002818BF20F8112002
:1020D0007047000045F67C71C2F2000101EB001070
:1020E00050F8100C7047000080B582B04FF0000C23
:1020F0004FF01D0ECDE900EC22F072FC02B080BD65
:1021000080B582B04FF0000C4FF01B0ECDE900EC13
:1021100022F066FC02B080BD45F6287045F6B85145
:1021200001224EF6D043C2F20000C2F20001C0F21A
:10213000040301618280022202840322828745F621
:10214000E862C2F20002936001F12402C26201F16E
:10215000480291F87C108264017380F8281080F89E
:102160004410704745F6E86043F261514EF658421C
:102170000023C2F20000C0F20201C0F20402C0E972
:102180000033C0E9022145F6B8504EF6C041C2F214
:102190000000C0F2040101677047000010B504465A
:1021A00012F0B2FC45F6E860C2F20000016829B303
:1021B000088AA04202D100221AE000BF0868E8B1F4
:1021C000028AA24210D00168C1B10A8AA2420ED08E
:1021D000086898B1028AA24206D0016871B10A8AE1
:1021E000A2420246EAD103E00A46014600E0024666
:1021F00045F6E860C2F2000012F052FC012022F025
:1022000039FABDE8104012F09BBC000070B582B0F6
:1022100015460C46064612F077FC01A9304622F01E
:10222000F9FA28B106468089A04203D20D240CE0B9
:102230000A240AE0706829462246FEF780FCB07B3B
:10224000000744BFB0680480002412F079FC2046E7
:1022500002B070BD45F67C73C2F2000303EB0010C0
:1022600000F8042C40F80C1C7047000045F67C7206
:10227000C2F2000202EB001040F8101C7047000090
:1022800045F67C700021C2F20000C0E90C1145F651
:10229000E86045F68171C2F20000C0F20201C1603F
:1022A00040F2701045F6E541C2F20000C0F20201B2
:1022B0000164704780B547F6592147F67102032043
:1022C000C0F20201C0F2020223F0C2FF45F6B8706C
:1022D0000021C2F20000C0E90011C0E90211C0E90A
:1022E0000411C0E9061180BD80B547F6AD21072075
:1022F0000022C0F2020123F0ABFF47F6893108202B
:102300000022C0F2020123F0A3FF46F2E0002421E4
:10231000C2F20000FEF73BFD80BD000080B546F62E
:10232000652106200022C0F2020123F091FF46F24F
:1023300004103421C2F20000FEF729FD80BD000028
:1023400080B546F6D92146F68D020420C0F202017E
:10235000C0F2020223F07CFF46F26C200021C2F2A0
:102360000000C0E90011C0E90211C0E90411816157
:1023700080BD000080B547F6353147F6750205206F
:10238000C0F20201C0F2020223F062FF46F26C20AA
:102390000021C2F20000C0E90011C0E90211C0E949
:1023A0000411816180BD00002DE9F04782B041F247
:1023B0000014C4F20004D4F80402C00759D0206805
:1023C000002856D000204FF208512060C4F20101CD
:1023D00020684FF4804008604AF20440C2F20000D6
:1023E0000278012A06D141F25052C4F2000212686A
:1023F0000A2A0BD00278022A40F0C58041F25052DE
:10240000C4F200021268022A40F0BD804EF280231E
:102410006FF0FF0202274FF48046CEF200039F5078
:102420000122BFF34F8FBFF36F8F44F8FC2C44F8A9
:10243000F02C0E600021017046F20270C2F2000022
:10244000077021602068A160A068E160E0682161F8
:1024500020694FF20800C4F200000260C0F80023B7
:102460004FF680601F60CFF6FF701F5002B0BDE8CE
:10247000F087D4F80402400753D5A068002850D054
:1024800000234FF400314FF48072A360A06848F23B
:102490004410C4F20000C0F8C4114EF28021CEF204
:1024A00000010A60022148F24052C4F8001146F2CD
:1024B0000271C4F20002C2F200010F784FF208511B
:1024C000C4F20101032F40F07F8046F2B247182684
:1024D000C2F200073F78022F46F2544708BF0C268D
:1024E000C2F200073F7895682E44022F06F16A0574
:1024F0001560A4F1FC05CD674FF4804541F8045CFC
:102500004FF0200508BF102506EB05074FF0040625
:1025100008BF14263744A5375760036002270368B5
:102520007AE0D4F80402000740F1E380E068002874
:1025300000F0DF80002046F20277E060C2F2000780
:10254000E068387803287DD146F2A844022038702C
:10255000C2F20004206860B146F2A441C2F2000158
:102560000A7846F2A041C2F20001FEF7E8FA002024
:10257000206046F2AC40C2F200000168002002B0C8
:10258000BDE8F047084746F20271C2F200010A783E
:10259000032A18BF02780978042902D00178022999
:1025A0000FD100214FF400326160616848F244119C
:1025B000C4F20001C1F8C0210A68002A1CBF012230
:1025C0000A600021017094E046F2544346F2B2469C
:1025D0007D27C2F20003C2F200061B78022B08BF5F
:1025E000712736789568022B18BF6FF001032F44CE
:1025F000022E3B4446F2B447C2F2000708BF013343
:1026000097F900703B4401271360A4F58073CB67F2
:102610004FF4804341F8043C4AF20443C2F2000301
:102620001F70012740F8F87C1068D268801AB0F15A
:10263000FF3F5EDC4FF4804008600020187002B05D
:10264000BDE8F0873878042853D146F2B84041F20B
:102650005058C2F20000C4F20008006890F801A0CF
:1026600048F24050C4F20000866846F25440C2F27C
:102670000000057858F8089C0FF0DEF94AF2054290
:10268000022146F2B3433970C2F2000246F25541CC
:10269000C2F200031278C2F200010978002A08BFD2
:1026A0000A461A703822022D0CBF202203250AFA8E
:1026B00005F3D4F800731A44A6F1090309F07F0664
:1026C0009B1A46F250423044FF07C2F20002C0F1AA
:1026D000000014684FF6BC62CFF6FF7258F8022073
:1026E000009141B20CBF04200020A04702B0BDE819
:1026F000F08702B0BDE8F08748F208304FF40031AF
:10270000C4F20000016041F20010C4F20000416810
:10271000002918BF704710B582B04EF2001E022487
:102720004FF2085C01234FF4804146F20272CEF270
:10273000000EC4F2010CC2F20002CEF88040BFF3DA
:102740004F8FBFF36F8F40F8FC3C40F8F03CCCF863
:1027500000104AF2044C0021C2F2000C8CF8001068
:1027600014700160026881608268C160C2680161A2
:10277000006900224FF20800C4F200000360C0F8B4
:10278000003346F25040CEF88041CEF80040009130
:1027900000210023C2F2000004680320A04702B019
:1027A00010BD00002DE9F04F8BB08146007C8A46B9
:1027B000012101FA00F0BAF8001008422AD046F2CE
:1027C000C4111C461546C2F200012646A34648889D
:1027D00001304880D9E90023C4E90023E36046F8CA
:1027E000082F039599F812000BF8130F0BF8010C42
:1027F0009AF80410490639D503F4404191F4804F0A
:1028000013D190B1104619465A4633464DB301F0E4
:10281000A5FB2BE046F2C410C2F200000188013192
:10282000018000200BB0BDE8F08F01F07DF900F0D1
:10283000FE0002281AD1D6E900239BF800000DF112
:102840001F01009100F060FF10B19DF81F0068B9F2
:1028500046F2C410C2F200000146008B013008832A
:10286000DFE700F01BFE002800F045810120CDE9E4
:10287000040406960AF11007DAF80400D6E90064A9
:102880009BF80050410702D44FF000081BE0D7E945
:102890000012C0F3C0004FF002086840624071406F
:1028A000114346F2C41208434FF00801C2F200027D
:1028B00008BF0A211346525A002802F101025A5257
:1028C00008BF4FF0010899F81000012101FA00F04B
:1028D000BAF8021008422DD056EA04000AD101F0DD
:1028E000EDFD012806D146F2C410C2F20000811DA0
:1028F000012012E028463246234601F06BFD46F2E5
:10290000C41100284FF00100C2F200010A4601F193
:10291000060108BF111D08BF02200A8801320A8083
:1029200080450AD9DAF80400DDF8148041072BD479
:10293000012156E000208045F4D899F810000121CB
:10294000BAF80220DDF8148001FA00F0104248D0F5
:1029500006989BF80060D0E9005455EA040003D1C2
:1029600001F0ACFD012805D030462A46234601F08F
:1029700031FD40B346F2C410C2F200000146C088E7
:102980000130C88001212CE0069BD7E90012D3E971
:102990000036724059401143C0F3C00146F2C410E2
:1029A000C2F2000000F1080012D19BF800208A4218
:1029B0000ED146F2C410C2F2000001464089013037
:1029C000488101210DE046F2C410C2F2000004303B
:1029D0000188013101800498002100284FF0000097
:1029E00008D1012088F8150088F8141099F8111002
:1029F000890702D40BB0BDE8F08F0699DAF804001D
:102A0000D9E9024599F813609BF80070D1E90023D9
:102A1000C006CDE908238DF82B7032D5F6B105F448
:102A2000404090F4804F19D1039850B10DF12B0222
:102A300008AB2046294601F0F5F9DDE908239DF8A9
:102A40002B70CDE90023204629463A4600F09CFC35
:102A5000002818BF0120012816D1CBE7384601F025
:102A600003F800F0FE0002280BD146F2C410C2F2B7
:102A700000000146408B013048830220012803D129
:102A8000B8E700200128B5D002283FF4CAAEDAF832
:102A90000410C80741D0C1F34000864201BFDAE903
:102AA000020260406A4050EA02002ED046F2C41092
:102AB000002EC2F200000246808900F101009081E0
:102AC0004FF0000096D005F4404292F4804F91D12F
:102AD00011F020013FF48EAF46F2C410C2F20000A4
:102AE0000146008C01300884002088F81500012080
:102AF0000BB0BDE8F08F46F2C410C2F200000146F0
:102B0000C08B0130C8830020B1E646F2C410C2F287
:102B100000000146C0890130C88101200BB0BDE82A
:102B2000F08F000070B582B00DF058FE46F291149F
:102B300046F2751546F29D2646F265230120C0F245
:102B40000204C0F20205C0F20206C0F202032146EE
:102B50002A46009601F0AEFD46F27523022021467A
:102B60002A460096C0F2020301F0A4FD46F2A1201D
:102B700046F2852300212A46C0F20200C0F2020379
:102B80000090032001F096FD46F238108C21C2F22D
:102B90000000FEF7FCF802B070BD000010B546F270
:102BA000EA134FF0000E46F2EB1C0C46C2F2000393
:102BB000C2F2000C83F800E08B078CF800E001F112
:102BC000040318BF23F0030449F6F053C2F20003D4
:102BD0001C6004EB0013591A91429CBF8CF8000052
:102BE0008E461FFA8EF010BD10B546F2F0134FF06E
:102BF000000E46F2F11C0C46C2F20003C2F2000CB9
:102C000083F800E08B078CF800E001F1040318BFA3
:102C100023F0030449F6F453C2F200031C6000EBF6
:102C2000C00304EBC303591A91429CBF8CF8000007
:102C30008E461FFA8EF010BD10B546F2F3134FF01A
:102C4000000E46F2F41C0C46C2F20003C2F2000C65
:102C500083F800E046F2F2138CF800E0C2F20003C1
:102C600083F800E08B0701F1040318BF23F003048D
:102C700049F6F853C2F200031C6004EBC003591A72
:102C800091429CBF8CF800008E461FFA8EF010BD5A
:102C90002DE9F04F8DB00746007800F00F090120B4
:102CA00000FA09FA08881AEA000F12D046F2C41B8B
:102CB000884678781AF4C07FC2F2000BBBF8021085
:102CC00001F10101ABF802100ED001200DB0BDE8FA
:102CD000F08F46F2C410C2F2000001880131018079
:102CE00000200DB0BDE8F08F00F03F001E461546F5
:102CF000587483F81090384610F8024B01F072FDBA
:102D000002463346C6E90021F160C4F38010049501
:102D1000B07403F8130F0793334643F8082F089352
:102D200098F804305B062ED558B101F4404393F473
:102D3000804F06D11046FDB1DDE9072301F00EF901
:102D400021E00B4600F0F0FE00F0FE0002281AD150
:102D500008980DF12701D0E9002307980078009129
:102D600000F0D2FC10B19DF8270060B9BBF8180044
:102D70000130ABF81800B3E7DDE9072300F08EFB64
:102D8000002800F03B81012003900898069608F186
:102D90001003D0E9004607980578D8F804004107E9
:102DA00002D44FF0000B18E0D3E90012C0F3C000CA
:102DB000684072406140114308434FF0080108BF6A
:102DC0000A213BF80120002802F101022BF8012022
:102DD0004FF0020B08BF4FF0010BB8F802001AEADF
:102DE000000F4AD054EA060005930AD101F066FBB1
:102DF000012806D146F2C410C2F20000811D012054
:102E000012E028462246334601F0E4FA46F2C411A5
:102E100000284FF00100C2F200010A4601F106014C
:102E200008BF111D08BF02200A88059B01320A80D5
:102E3000834525D9D8F8040046F2C41BDDF818A054
:102E4000C2F2000B410741D5D3E90012089BD3E938
:102E50000036724059401143C0F3C0010BF1080025
:102E600040F0C180079A12788A4240F0BC80BBF8DB
:102E70000A000130ABF80A0028E000208345D9D8C9
:102E8000B8F8020046F2C41BC2F2000B1AEA000FA7
:102E9000DDF818A01AD00898D0E9006407980578E2
:102EA00056EA040003D101F009FB012807D02846A7
:102EB0003246234601F08EFA002800F09280BBF8DB
:102EC00006000130ABF80600012000E001200121DE
:102ED000B9F1050F8AF815108AF814003FF6F5AE1F
:102EE00001FA09F010F02A0F4FF0010000F0838082
:102EF00017F8084B384601F075FC0F460799054650
:102F0000D8F80400E4090E780899C006D1E9002336
:102F1000CDE90A238DF833602FD5F4B107F4404092
:102F200090F4804F19D1049850B10DF133020AABDF
:102F30002846394600F076FFDDE90A239DF8336024
:102F4000CDE9002328463946324600F01DFA002814
:102F500018BF0120012813D14DE0304600F084FD58
:102F600000F0FE00022808D1BBF81A000130ABF8CF
:102F70001A000220012803D13DE0002001283AD0A8
:102F800002283FF4ADAED8F80410C8073FF49DAE58
:102F9000C1F34000844201BFD8E9020268407A4090
:102FA00050EA020031D0BBF80C00002C00F1010007
:102FB000ABF80C004FF000001DD007F4404292F433
:102FC000804F18D111F0200115D0BBF8200001303E
:102FD000ABF8200000208AF8150001200DB0BDE8F4
:102FE000F08F0BF10400018801310180039900206A
:102FF00000293FF46CAF0DB0BDE8F08FBBF81E00A8
:103000000130ABF81E000020BEE6BBF80E00013018
:10301000ABF80E0059E6000080B546F625310920D0
:103020000022C0F2020123F013F946F228402421C5
:10303000C2F20000FDF7ABFE80BD0000B0B546F265
:10304000EA1C46F2EB11C2F20001C2F2000C9CF83D
:1030500000E009788E4524BF0020B0BD49F6F05449
:1030600004994FEA0E15C2F200042468625104EB81
:103070000E125172536010720EF101008CF80000B4
:103080000120B0BD70B546F2EA11C2F2000191F81C
:1030900000E0BEF1000F19D049F6F051DDF810C084
:1030A0000024C2F2000109680D7A85420AD1D1E9F3
:1030B00000565E405540354304D14D7A654504BF06
:1030C000012070BD013410317445EDD3002070BD76
:1030D00046F2EA100021C2F20000017070470000C1
:1030E00046F2EB10C2F20000007870472DE9F04183
:1030F00046F2EA1CC2F2000C9CF800E0BEF1000FA0
:1031000018D049F6F051069E0025C2F20001D1F810
:10311000008041460F7A874208D1D1E900745C40B3
:1031200057403C4302D14C7AB44206D001351031AD
:103130007545EFD30020BDE8F081BEF1020F0FD33B
:10314000AEF10100A8420BD008EB00120001137A87
:103150000B7258F800005368C1E90003507A4872B6
:10316000AEF101008CF800000120BDE8F081000004
:10317000F0B585B046F2F01C43EA0040C2F2000C04
:103180009CF80010F1B349F6F4530325C2F2000392
:10319000D3F800E000230EF1F80454E93667474005
:1031A00056403E4329D0AE1E8E422BD254E92467AE
:1031B000474056403E4319D06E1E8E4222D254E9FB
:1031C0001267474056403E4313D08D421AD2D4E98D
:1031D0000067474056403E430ED02E1D0135043354
:1031E00004F590748D423546D7D30BE043F00103CC
:1031F00003E043F0020300E02B4603EBC3030EEBB6
:10320000C306B6B946F2F113C2F200031B78994225
:1032100080F0A9804B1C01EBC1018CF8003049F60D
:10322000F453C2F200031B6803EBC106002E00F04A
:103230009C80DDE90A31C6E90820012518685A6832
:103240009F68DB6886F8405030600006F360B76026
:1032500072601DD17078D8B9B078C8B9F078B8B9B3
:103260003079A8B9707998B9B07988B9F07978B916
:10327000307A68B9707A58B9B07A48B9F07A38B902
:10328000307B28B9707B18B9B07B08B9F07B10B1DE
:10329000002086F8400008684A688B68C96835468F
:1032A000012445F8100F0006E960AB606A6085F8FC
:1032B00031401ED1707CE0B9B07CD0B9F07CC0B98F
:1032C000307DB0B9707DA0B9B07D90B9F07D80B986
:1032D000307E70B9707E60B9B07E50B9F07E40B972
:1032E000307F30B9707F20B9B07F10B9F07F0028EF
:1032F0003FD000276846042186F84370A6F8417045
:10330000C6E90A77C6E90C77C6E90E770EF0B2FA7D
:1033100000988DF81370CDF80F70CDF80B70CDF8C4
:103320000770014664F39F510091090C8DF8061057
:10333000010A8DF8051001A98DF8040028460A46F7
:103340000EF02EFA9DF804009DF805109DF8062059
:10335000009B40EA01201F0A40EA024040EA036065
:10336000C6E90C0702E0002400E00024204605B076
:10337000F0BD00200124C6E90A00C6E90C00C6E938
:103380000E00A6F84200F1E72DE9F04782B096461C
:1033900046F2F012C2F200021578002D41D049F633
:1033A000F452DDF82CC0DDF828900323C2F20002AD
:1033B000D2F800804CEA0E4A002208F1F80757E9DB
:1033C000364686EA0A0684EA0904344338D09C1E4D
:1033D000AC4228D257E9244686EA0A0684EA090460
:1033E000344322D05C1EAC4222D257E9124686EA10
:1033F0000A0684EA090434431CD0AB421DD2D7E943
:10340000004686EA0A0684EA0904344317D01C1DE4
:103410000133043207F59077AB422346CFD3002423
:1034200037E0002435E0002433E042F0010207E0F9
:1034300000242EE042F0020202E0002429E01A46B5
:1034400002EBC20208EBC20222B192F841301BB17A
:1034500000241EE000241CE0D2E90E234B40424031
:103460001A4301D1012414E046F2EC12C2F2000228
:1034700015686DB146F2C4120024C2F20002938CAA
:103480000133938400227346CDE9009CA84700E0F5
:103490000024204602B0BDE8F08700002DE9F0438B
:1034A00083B046F2F017C2F200073C78002C73D0CC
:1034B00049F6F4574FF0000E03264FF00008C2F211
:1034C0000007D7F800C00CF58C7500BF15F8D87C44
:1034D00057B955E93C8787EA010988EA000757EAA6
:1034E000090763D04FF00108B71EA74236D215F87E
:1034F000907C57B955E92A8787EA010988EA0007CD
:1035000057EA09074BD04FF00108771EA74225D292
:1035100015F8487C57B955E9188787EA010988EA00
:10352000000757EA09073DD04FF00108A64215D21F
:103530002F7857B955E9068787EA010988EA000715
:1035400057EA090731D04FF00108371D013605F55C
:1035500090750EF1040EA6423E46B7D34FF0000C14
:10356000B8F1000F31D046F2EC17C2F200073F6805
:103570005FB346F2C416C2F20006758C013575843D
:1035800092F800C0D3E90023CDE90023012263466D
:10359000B8474FF0000C18E04FF0000C15E04EF06B
:1035A000010E03E04EF0020E00E0B6460EEBCE0038
:1035B0000CEBC0004FF0010C90F8261001F0010157
:1035C0001170016A808CC3E90010604603B0BDE849
:1035D000F083000046F2F0100021C2F200000170FA
:1035E000704700002DE9F04186B046F2F011C2F2BA
:1035F00000010C78002C45D043EA004349F6F45012
:10360000DDF8308000260321C2F20000D0F800C0AF
:103610000CF1F80555E9367058405740384329D029
:103620008F1EA7422ED255E924075F4050403843F1
:1036300019D0481EA04225D255E912075F405040DC
:10364000384313D0A1421DD2D5E900075F40504056
:1036500038430ED0081D0131043605F59075A1429E
:103660000146D7D30EE046F0010603E046F002061D
:1036700000E00E4606EBC6000CEBC00414B194F853
:10368000400018B1002006B0BDE8F081254615F8CD
:10369000420F10B1D4E90A1030E001A804210EF065
:1036A000E9F80198012600228DF81720CDF81320A3
:1036B000CDF80F20CDF80B20014666F39F51019104
:1036C000090C8DF80A10010A8DF8091002A98DF86D
:1036D000080020460A460EF063F89DF808109DF891
:1036E00009209DF80A30019F41EA0221380A41EA87
:1036F000034141EA0761C4E90A102E70C8E90010CD
:10370000012006B0BDE8F081F0B546F2F011C2F23A
:1037100000010978002904BF0020F0BD43EA004001
:1037200049F6F453DDF814C00325C2F20003D3F8C0
:1037300000E000230EF1F80454E936674740564094
:103740003E432BD0AE1E8E4224BF0020F0BD54E974
:103750002467474056403E4319D06E1E8E4228D201
:1037600054E91267474056403E4313D08D4220D261
:10377000D4E90067474056403E430ED02E1D013528
:10378000043304F590748D423546D5D311E043F0EF
:10379000010303E043F0020300E02B4603EBC30008
:1037A0000EEBC00028B190F843008CF80000012017
:1037B000F0BD0020F0BD000046F2F110C2F20000A2
:1037C000007870472DE9F04F85B046F2F010C2F254
:1037D00000000078002800F08680EB4600274FF0BC
:1037E000010A4FF000084FF000090BF1030500BF7C
:1037F00049F6F450C2F20000006800EB080696F8A3
:10380000410070BB04A804210EF034F84FF6FF719C
:1038100004982F73AF606F602F605A46C0F23F016B
:10382000014001F580010491090C8DF80210010A94
:103830008DF801108DF8000006F1100059460DF0CA
:10384000AFFF9DF800009DF801109DF80220049B39
:1038500040EA01201C0A40EA024040EA0360C6E94F
:103860000C0496F8400080BB96F8420068B304A8A8
:1038700004210DF0FFFF4FF6FF7104982F73AF6026
:103880006F602F605A46C0F23F01014001F5800190
:103890000491090C8DF80210010A8DF801108DF8C1
:1038A0000000304659460DF07BFF9DF800009DF862
:1038B00001109DF80220049B40EA01201C0A40EA06
:1038C000024040EA0360C6E90A0446F2F01086F8B6
:1038D00044A009F1010908F14808C2F2000000788B
:1038E0008145FFF485AF05B0BDE8F08F2DE9F041CB
:1038F00046F2F013C2F2000393F800C0BCF1000FCF
:103900004AD0079BDDF81880032643EA024249F6B5
:10391000F453C2F20003D3F800E000230EF1F805DF
:1039200055E93674544087EA08073C432CD0B71E4B
:10393000674531D255E92447574084EA08043C439F
:103940001BD0741E644527D255E91247574084EABC
:1039500008043C4314D066451ED2D5E900475740C1
:1039600084EA08043C430ED0341D0136043305F5C7
:10397000907566452646D3D30EE043F0010303E07D
:1039800043F0020300E0334603EBC3020EEBC20236
:1039900012B192F8413013B10020BDE8F081D2E9B4
:1039A0000E2359405040084304BF0120BDE8F08178
:1039B0000020BDE8F081000070B546F2F011C2F2BF
:1039C000000191F800C0BCF1000F04BF002070BDE1
:1039D00043EA004349F6F45000210324C2F20000F8
:1039E000D0F800E00EF1F80050E936565E40554040
:1039F00035432CD0A51E654524BF002070BD50E97D
:103A000024565E40554035431AD0651E654515D293
:103A100050E912565E405540354314D064450DD2EE
:103A2000D0E900565E40554035430FD0251D013486
:103A3000043100F5907064452C46D5D3002070BD4C
:103A400041F0010103E041F0020100E0214601EBF9
:103A5000C1000EEBC001002000291EBF91F84420D8
:103A600081F84400104670BD70B546F2F011C2F204
:103A7000000191F800C0BCF1000F04BF002070BD30
:103A800043EA004349F6F45000210324C2F2000047
:103A9000D0F800E00EF1F80050E936565E4055408F
:103AA00035432DD0A51E654524BF002070BD50E9CB
:103AB00024565E40554035431BD0651E654516D2E1
:103AC00050E912565E405540354315D064450ED23C
:103AD000D0E900565E405540354310D0251D0134D5
:103AE000043100F5907064452C46D5D31AE00020CF
:103AF00070BD41F0010103E041F0020100E0214608
:103B000001EBC1000EEBC00060B1D0E90C12114313
:103B10001CBF032070BD90F841100120002908BF90
:103B2000022070BD002070BD70B546F2F011C2F2E7
:103B3000000191F800C0BCF1000F04BF002070BD6F
:103B400043EA004349F6F45000210324C2F2000086
:103B5000D0F800E00EF1F80050E936565E405540CE
:103B600035432DD0A51E654524BF002070BD50E90A
:103B700024565E40554035431BD0651E654516D220
:103B800050E912565E405540354315D064450ED27B
:103B9000D0E900565E405540354310D0251D013414
:103BA000043100F5907064452C46D5D31AE000200E
:103BB00070BD41F0010103E041F0020100E0214647
:103BC00001EBC1000EEBC00060B1D0E90A12114355
:103BD0001CBF032070BD90F840100120002908BFD1
:103BE000022070BD002070BDF0B546F2F011C2F2A7
:103BF00000010978002904BF0020F0BD43EA00401D
:103C000049F6F453DDF814C00325C2F20003D3F8DB
:103C100000E000230EF1F80454E9366747405640AF
:103C20003E432BD0AE1E8E4224BF0020F0BD54E98F
:103C30002467474056403E4319D06E1E8E4228D21C
:103C400054E91267474056403E4313D08D4220D27C
:103C5000D4E90067474056403E430ED02E1D013543
:103C6000043304F590748D423546D5D311E043F00A
:103C7000010303E043F0020300E02B4603EBC30023
:103C80000EEBC00000281CBFD0E90C0150EA010275
:103C900001D10020F0BDCCE900010120F0BD000001
:103CA000F0B546F2F011C2F200010978002904BF14
:103CB0000020F0BD43EA004049F6F453DDF814C09B
:103CC0000325C2F20003D3F800E000230EF1F8044C
:103CD00054E93667474056403E432BD0AE1E8E42D5
:103CE00024BF0020F0BD54E92467474056403E43BE
:103CF00019D06E1E8E4228D254E9126747405640B2
:103D00003E4313D08D4220D2D4E90067474056404D
:103D10003E430ED02E1D0135043304F590748D42C0
:103D20003546D5D311E043F0010303E043F002032D
:103D300000E02B4603EBC3000EEBC00000281CBFC5
:103D4000D0E90A0150EA010201D10020F0BDCCE91E
:103D500000010120F0BD00002DE9F04146F2F0180D
:103D6000C2F2000898F80050002D04BF0020BDE802
:103D7000F08143EA004349F6F4500026C2F2000005
:103D8000D0F800C003200CF1F80400BF54E93671EC
:103D90005940574039432CD0871EAF4224BF0020E2
:103DA000BDE8F08154E924175F405140394319D0F0
:103DB000411EA94232D254E912175F4051403943A3
:103DC00013D0A8422AD2D4E900175F4051403943AA
:103DD0000ED0011D0130043604F59074A842084647
:103DE000D4D31BE046F0010603E046F0020600E0F3
:103DF000064606EBC6000CEBC00078B1022D07D3D7
:103E000005EBC50148220CEBC1014839FCF71EFF48
:103E1000681E88F800000120BDE8F0810020BDE8A0
:103E2000F08100002DE9F04F85B0824646F2F01097
:103E300046F2C418C2F20000C2F20008067808F187
:103E4000140B002E47D089461078D3E900210025B5
:103E500041EA004349F6F4500321C2F20000D0F8D1
:103E600000C00CF1F80454E936705840574038430C
:103E700029D08F1EB7422ED254E924075F4050400C
:103E8000384319D0481EB04225D254E912075F408A
:103E90005040384313D0B1421DD2D4E900075F40EF
:103EA000504038430ED0081D0131043504F590749C
:103EB000B1420146D7D30EE045F0010503E045F0DD
:103EC000020500E00D4605EBC5000CEBC00010B18B
:103ED00090F8411049B10026BBF800000130ABF862
:103EE0000000304605B0BDE8F08F044654F8381F96
:103EF000626881EA0A0182EA0902114301D10126BE
:103F0000EFE700264FEA1A6110308DF81360CDF804
:103F10000F60CDF80B60CDF807608DF805908DF837
:103F200004104FEA19218DF8061001A90A460DF078
:103F300037FC9DF804009DF805109DF8062040EA26
:103F400001202AF07F4140EA0240814202BFC4E9D9
:103F500000A908F1160B0126BEE700002DE9F04F7D
:103F600089B0074646F2F010CDE90023C2F2000006
:103F7000007800284FD00E46390E49F6F4544FF021
:103F8000000B4FF000094FF0000A41EA0621C2F28F
:103F90000004049105A901F1030827F07F41039172
:103FA000310A0291216801EB090595F8401061BBC7
:103FB000D5E90A0171407840084343D0029888F857
:103FC0000CB0C8F808B0C8F804B0C8F800B005A92B
:103FD0000A468DF8160004988DF815608DF81400C7
:103FE00028460DF0DDFB9DF814009DF815109DF896
:103FF000162040EA0120039940EA0240814215D090
:1040000046F2F010C2F2000000780AF1010A09F14C
:1040100048098245C6D346F2C410C2F20000018AA4
:1040200001310182002009B0BDE8F08F002085F841
:10403000420046F2C410C5E90A76C2F20000418A85
:104040000131418295F826000099019A00F00100A3
:104050000870286AA98CC2E90001012009B0BDE8F6
:10406000F08F000046F2EC11C2F2000108607047C8
:10407000F0B546F2F011C2F200010978002904BF40
:104080000020F0BD43EA004049F6F453DDF814C0C7
:104090000325C2F20003D3F800E000230EF1F80478
:1040A00054E93667474056403E432CD0AE1E8E4200
:1040B00024BF0020F0BD54E92467474056403E43EA
:1040C0001AD06E1E8E4215D254E9126747405640F0
:1040D0003E4314D08D420DD2D4E90067474056408C
:1040E0003E430FD02E1D0135043304F590748D42EC
:1040F0003546D5D30020F0BD43F0010303E043F083
:10410000020300E02B4603EBC3000EEBC0000028C7
:104110001EBF80F843C00120F0BD0020F0BD0000AC
:10412000F0B546F2F011C2F200010978002904BF8F
:104130000020F0BD43EA004049F6F453DDF814C016
:104140000325C2F20003D3F800E000230EF1F804C7
:1041500054E93667474056403E432BD0AE1E8E4250
:1041600024BF0020F0BD54E92467474056403E4339
:1041700019D06E1E8E4228D254E91267474056402D
:104180003E4313D08D4220D2D4E9006747405640C9
:104190003E430ED02E1D0135043304F590748D423C
:1041A0003546D5D311E043F0010303E043F00203A9
:1041B00000E02B4603EBC3000EEBC00028B1DCE9A6
:1041C0000012C0E90C120120F0BD0020F0BD00007B
:1041D00070B582B046F238160C460546C2F20006AB
:1041E000A6F87C10C6F8800000F03EFA806A0078DD
:1041F00005280DD196F8600050B90120C0F2960054
:10420000019001A80CF074FD284621460CF058FBE3
:1042100002B070BD80B546F67D3102200022C0F2AA
:10422000020122F015F846F25C402821C2F200009B
:10423000FCF7ADFD80BD0000B0B547F6C14447F6C0
:10424000654100200025C0F20204C0F202012246AE
:1042500021F0FEFF47F6114101202246C0F2020183
:1042600021F0F6FF46F28440C2F20000C0E900559A
:10427000C0E90255C0E904558561B0BD2DE9F043A0
:1042800083B00C46054600F0EFF9806A40F2010861
:10429000C0F296080078042812D146F23810C2F213
:1042A000000090F8600058B901A8CDF804800CF027
:1042B0001FFD284621460CF01DFD03B0BDE8F0832C
:1042C00046F26C290020C2F20009B9F816700CF011
:1042D00069FF46F22036C2F200063168401AB84241
:1042E00002D2B9F8160004E000200CF05BFF316840
:1042F000401AA9F8160002A8CDF808800CF0F8FCC6
:10430000284621460CF046FE03B0BDE8F0830000CD
:10431000B0B546F2F31C43EA004EC2F2000C9CF822
:1043200000309BB349F6F8500321C2F20000006848
:10433000D0E9004585EA0E0554402C4304BF012016
:10434000B0BD8C1E9C4221D2D0E9024585EA0E0503
:1043500054402C4333D04C1E9C4217D2D0E9044524
:1043600085EA0E0554402C4329D099420ED2D0E95B
:10437000064585EA0E0554402C4304BF0120B0BD1C
:104380000C1D0131203099422146D1D346F2F41060
:10439000C2F200000078834224BF0020B0BD49F67D
:1043A000F850C2F20000006840F8332000EBC30070
:1043B000C0F804E0581C8CF800000120B0BD0120BA
:1043C000B0BD000046F2F2100121C2F200000170FF
:1043D0007047000010B546F2F311C2F2000191F8E7
:1043E00000E0BEF1000F04BF002010BD43EA004C06
:1043F00049F6F850C2F2000003680020C1B253F839
:10440000314003EBC1014968544081EA0C0121436A
:1044100004BF012010BD40F00101C9B2714524BFA5
:10442000002010BD53F8314003EBC10149685440EE
:1044300081EA0C01214304BF012010BD40F00201BC
:10444000C9B2714524BF002010BD53F8314003EBC1
:10445000C1014968544081EA0C01214304BF012095
:1044600010BD40F00301C9B2714524BF002010BD4A
:1044700053F8314003EBC1014968544081EA0C0113
:10448000214304BF012010BD0430C1B2714524BFD7
:10449000002010BDB2E7000046F2F2100021C2F287
:1044A0000000017046F2F310C2F200000170704784
:1044B00046F2F410C2F200000078704746F2F210A3
:1044C000C2F200000078704770B546F2F31CC2F2E9
:1044D000000C9CF800E0BEF1000F04BF002070BD8E
:1044E00043EA004349F6F8500021C2F20000006898
:1044F000CCB250F8345000EBC404666855405E40BE
:10450000354331D041F00104E4B2744524BF0020AA
:1045100070BD50F8345000EBC404666855405E40EE
:10452000354321D041F00204E4B274451AD250F868
:10453000345000EBC404666855405E40354313D0E8
:1045400041F00304E4B274450CD250F8345000EB4F
:10455000C404666855405E40354305D00431CCB292
:104560007445C5D3002070BDBEF1020F22BF00EB21
:10457000CE0050E90201C4E90001AEF101008CF85F
:104580000000012070BD000046F2F2100021C2F2CE
:10459000000001707047000010B546F2F814C2F236
:1045A00000042068002808BF10BDC17D01EB810117
:1045B00004EB8101C968002918BF884700202060EA
:1045C00010BD000070B546F2F81604460020C2F295
:1045D000000686F86E00346096F86D0020B90CF085
:1045E000D9FD96F86D0080B196F86C00E17D8842A7
:1045F0001AD000EB8000002186F86D1006EB8000D9
:104600004069804796F86D0070B9E57D05EB85003F
:1046100006EB800000698047012086F86C5086F820
:104620006D0028460CF014FEE07D00EB800006EBE8
:104630008000816809B12046884796F86E000028FE
:104640001CBF0020306070BD46F2F810C2F20000BE
:1046500090F86E007047000049F6FC50C2F200006E
:10466000006800887047000046F2F810C2F20000AF
:104670000068704749F6FC50C2F200000068C0882C
:104680007047000080B50CF0BBFD46F2F8107021B9
:10469000C2F20000FCF77BFB80BD000049F6FC5134
:1046A000C2F200010860704746F2F811C2F2000140
:1046B0004860704700EB800C46F2F810C2F2000030
:1046C00000EB8C00DDF800C0083080E80E10704769
:1046D00046F2F810C2F20000016800291CBF012157
:1046E00080F86E107047000070B546F2F815044669
:1046F000C2F2000595F86D0078B904EB840005EB73
:1047000080060CF047FD30698047012085F86C4039
:1047100085F86D0020460CF09BFD04EB840005EB52
:10472000800081690131816170BD000046F2F8119D
:1047300000EB8002C2F2000101EB82029369013BAF
:10474000936112D191F86D30002B08BF704791F83A
:104750006C30834209D180B5002081F86D0050692A
:104760008047BDE880400CF00BBD704746F2F81062
:104770000121C2F2000080F86E1000210160406843
:1047800000470000190A037102704171110EC170D7
:10479000110C8170110A4170704700000021818066
:1047A000016006307047000080B50622FCF77CF9F6
:1047B000B0FA80F0400980BD8A8882800968016073
:1047C0007047000080B582B000210622ADF80410C9
:1047D00000916946FCF768F9B0FA80F0400902B030
:1047E00080BD000041790279006842EA01217047EA
:1047F00002684168104670474FF208300121C4F248
:104800000000016046F2AB20C2F200004178FF29AF
:1048100006D046F2B041C2F20001097841707047FB
:10482000FEE70000D1F800C04B688A68C968C16023
:1048300082604360C0F800C0704700000A684968A1
:10484000416002607047000010B50A78037890F864
:1048500001C090F802E0C4785A4002704A7882EAB7
:104860000C0242708A7882EA0E028270CA78624034
:10487000C27002790B795A4002714A7943795A40E1
:1048800042718A7983795A408271CA79C3795A40D0
:10489000C2710A7A037A5A4002724A7A437A5A40BB
:1048A00042728A7A837A5A408272CA7AC37A5A40AA
:1048B000C2720A7B037B5A4002734A7B437B5A4095
:1048C00042738A7B837B5A408273C97BC27B51408F
:1048D000C17310BD70B5002942D011F00306A1F1DB
:1048E000010C11D014464EF6F04EC5B2012E14F84C
:1048F000013BC0F2040E83EA05035EF8233083EA2D
:1049000010202FD122466146BCF1030F28D34EF66A
:10491000F04CC0F2040C00BF1678C3B255789478FE
:1049200092F803E00432043983EA06035CF823308A
:1049300083EA1020C3B283EA05035CF8233083EADC
:104940001020C3B283EA04035CF8233083EA10200A
:10495000C3B283EA0E035CF8233083EA1020DBD174
:10496000C04370BD5378C4B2022E83EA04035EF8DC
:10497000233083EA102005D102390232BCF1030F43
:10498000EED3C4E79378C4B20339033263405EF8D0
:10499000233083EA1020BCF1030FE1D3B7E7000016
:1049A000F0B583B046F2C044C2F20004606800284B
:1049B00040F08C80607A00268DF80B600196ADF88F
:1049C0000260451C022888BF0025EFB2780050FA2B
:1049D00085F004EB8000036A3BB10DF10B000DF193
:1049E000020101AA9847002848D101358DF80B60D3
:1049F0000196ADF80260022F88BF0025EFB2780063
:104A000050FA85F004EB8000036A33B10DF10B001E
:104A10000DF1020101AA984780BB00260135022F43
:104A20008DF80B600196ADF8026088BF0025EFB2EB
:104A3000780050FA85F004EB8000036A33B10DF181
:104A40000B000DF1020101AA9847B8B901358DF8A4
:104A50000B600196ADF80260022F88BF0025E8B216
:104A6000400050FA85F004EB8000036A73B30DF147
:104A70000B000DF1020101AA984738B39DF80B1005
:104A8000019B657200296360217204D0022907D15D
:104A900004F1100001E004F10C0002680132026030
:104AA000BDF80220E8B203F0BBFA002084F86000F1
:104AB00061686060607A00EB400004EB8000C269CE
:104AC000207A90472078012110F002F803B0F0BD61
:104AD000B0B546F2C04504466421C2F2000528463E
:104AE000FCF755F9012085F848002C70B0BD000096
:104AF00046F2C040C2F200004068002818BF70476C
:104B00000020FFF74DBF0000032888BF704700EB6F
:104B1000400C46F2C040C2F2000000EB8C0018309E
:104B20000EC0704746F2C041C2F2000148617047B2
:104B3000B0B582B08DF807100DF1070001211C46B9
:104B4000154617F043FE2046294617F03FFE28463B
:104B500002B0B0BD80B504200FF0D4FE002808BF1D
:104B600080BD01460520887046F27050C2F20000F8
:104B7000007BBDE880400FF0F7BE00002DE9F0415A
:104B800007460E20984616460C460FF0BBFE00283E
:104B900008BFBDE8F0810546447100204146A87079
:104BA000E81DAE712F71FFF707FE46F270502946DF
:104BB000C2F20000007BBDE8F0410FF0D5BE00005E
:104BC00070B50D4646F26C6114460D22C2F200012A
:104BD00010FB02160FF098FF3471F570BDE87040BD
:104BE0000FF0AEBF80B50FF08FFF40F2B8104FF25C
:104BF0007C11C2F20000C0F20401016023F0B2FB9C
:104C000046F268600021C2F200000160002005F059
:104C10002DF9BDE880400FF093BF0000B0B50C4601
:104C200046F26C610D22C2F2000110FB02150FF07A
:104C30006BFFAC70BDE8B0400FF082BFB0B50C4662
:104C400046F26C610D22C2F2000110FB02150FF05A
:104C50005BFF2C72BDE8B0400FF072BF10B5044688
:104C60000FF052FF46F27050C2F200008473BDE8AC
:104C700010400FF065BF0000B0B50C4646F22C5155
:104C8000C2F200010D180FF03FFFEC77BDE8B04015
:104C90000FF056BF2DE9F041064603F108001C460F
:104CA00090460F460FF02EFE002808BFBDE8F081A9
:104CB0000699C47180F80680477105460671012087
:104CC0002246A87005F10800FBF739FF46F2705044
:104CD0002946C2F20000007BBDE8F0410FF044BE5F
:104CE000B0B50C4646F26C610D22C2F2000110FB19
:104CF00002150FF009FF6C72BDE8B0400FF020BF45
:104D000070B50D4646F22C511446C2F2000101EB7B
:104D100040060FF0F9FEF4823582BDE870400FF0D6
:104D20000FBF0000F0B581B00E4646F26C6115462B
:104D30000D221C46C2F2000110FB02170FF0E4FE28
:104D4000FC71BD717E7101B0BDE8F0400FF0F8BE9E
:104D500070B506460C200C460FF0D4FD002808BFA5
:104D600070BD0546067106202146A870681DFFF734
:104D700023FD46F270502946C2F20000007BBDE8D8
:104D800070400FF0F1BD00002DE9F04F81B00746F3
:104D90001220994690468A460FF0B4FD002804BFC1
:104DA00001B0BDE8F08F834607710220002F8BF819
:104DB00002006BD07A1E07F0030E032A04D20022F1
:104DC000BEF1000F33D161E0A7EB0E0C08F106072E
:104DD000002200BF1AF802000BEB020568710BEB12
:104DE000420037F8063C038119F80230AB730AEB36
:104DF00002035C78AC7108EB42046688468109EBDB
:104E00000206043271789445E9739978E971A188B2
:104E10008181B1782974D9782972398807F1080716
:104E2000C181F0786874D5D1BEF1000F2ED01AF888
:104E300002000BF105030BF108070BF10E0CBEF19C
:104E4000010F985438F8120027F8120019F80200E0
:104E50000CF802001AD0501CBEF1020F1AF8001014
:104E6000195438F8101027F8101019F800100CF821
:104E700000100BD0901C1AF80010195438F81010BC
:104E800027F8101019F800100CF8001046F27050B6
:104E90005946C2F20000007B01B0BDE8F04F0FF0B0
:104EA00063BD0000B0B5054608200C460FF02AFD92
:104EB000002808BFB0BD864605710320002D8EF87E
:104EC00002002ED06A1E05F0030C032A04D2002231
:104ED000BCF1000F15D124E0A5EB0C03002200BFAC
:104EE000A55C0EEB02004571A51804326978934267
:104EF0008171A978C171E9780172F1D1BCF1000F1B
:104F00000FD0A05C0EF10503BCF1010F985408D03E
:104F1000501CBCF1020F215C195402D0901C215C82
:104F2000195446F270507146C2F20000007BBDE891
:104F3000B0400FF019BD0000B0B50C4646F26C61F0
:104F40000D22C2F2000110FB02150FF0DDFD6C70A6
:104F5000BDE8B0400FF0F4BD10B546F2945100EB3F
:104F60004000C2F2000101EB00140FF0CDFD34F857
:104F7000224C0FF0E5FD204610BD000070B505463F
:104F8000062014460E460FF0BDFC002808BF70BD79
:104F90000471014606803120887046F270504D71D0
:104FA000CC70C2F20000007BBDE870400FF0DCBCAA
:104FB00046F29452C2F20002917D11B19189814270
:104FC00010D092F8461021B1918F814201D1303238
:104FD00008E092F8763000212BB1B2F86C308342B1
:104FE00001D16032117C08467047000046F29451AE
:104FF00000EB4000C2F2000101EB001010F81A0CA7
:105000007047000040F2B8104FF288114FF2FC12C6
:10501000C2F20000C0F20401C0F20402C0E90321A0
:1050200046F288504FF29411C2F20000C0F204011F
:105030000160704746F2945100EB4000C2F200015B
:1050400001EB00102A38704746F2945100EB400003
:10505000C2F2000101EB001010F81C0C70470000B8
:1050600046F2945100EB4000C2F2000101EB001047
:105070001638704746F288504FF2BC11C2F2000059
:10508000C0F204014160704746F2945100EB4000C9
:10509000C2F2000101EB00103038704746F2945123
:1050A00000EB4000C2F2000101EB001010F81D0CF3
:1050B0007047000046F2945100EB4000C2F200013C
:1050C00001EB001010387047B0B50C4646F2945111
:1050D000C2F2000101EB80050FF016FDC5F890400B
:1050E000BDE8B0400FF02CBD46F2945100EB4000FB
:1050F000C2F2000101EB001010F8170C704700001D
:1051000046F2945100EB4000C2F2000101EB0010A6
:1051100010F8190C7047000070B501380C4646F2C3
:105120009451154600EB4000C2F2000101EB00165D
:105130000FF0EAFCB07D18B135B1F0892043F08161
:10514000BDE870400FF0FCBCF089A043F081BDE8E1
:1051500070400FF0F5BC000046F288504FF2E411A9
:10516000C2F20000C0F204018160704780B50420E3
:105170000FF0C8FB002808BF80BD01467020887072
:1051800046F27050C2F20000007BBDE880400FF094
:10519000EBBB000003292CD8DFE801F002220C153C
:1051A000032A26D846F27051C2F200010844427424
:1051B00001207047012A1CD846F27050C2F200004C
:1051C000427501207047012A13D846F27050C2F28E
:1051D0000000817D01F0FE011143817501207047BF
:1051E000032A06D846F27050C2F200000275012070
:1051F000704700207047000003282BD8DFE800F03C
:1052000002210B14032925D846F27050C2F2000087
:1052100041740120704701291CD846F27050C2F237
:105220000000417501207047012913D846F27050E3
:10523000C2F20000827D02F0FE021143817501205E
:105240007047032906D846F27050C2F2000001757B
:10525000012070470020704710B5044646F2705098
:10526000C2F200002146FFF7A7FA2046BDE8104031
:1052700004F0FCBA10B50FF047FC40F2B8104FF242
:10528000F42147F600724FF600730024C2F20000CA
:10529000C0F20401C0F20102C0F2010381624FF2C8
:1052A0007011C0F20401016046F26C600121C2F28B
:1052B000000080F8264080F82340A0F82110C0F8B4
:1052C0001D20C0F819308475818240F27F1102617F
:1052D000C3600481C0F20011416040F2FF1101601F
:1052E00023F040F846F2966040F240614FF4F062DD
:1052F000C2F20000C0F280710482C16082604FF08F
:10530000C8624260016046F2686049F26921C2F2F7
:105310000000C0F200010160002004F09BFDBDE828
:1053200010400FF00DBC000046F288504FF2AC1157
:10533000C2F20000C0F204014160704746F288509A
:105340004FF2CC11C2F20000C0F20401816070473C
:1053500080B50FF0D9FB40F2B8104FF21831C2F20D
:105360000000C0F20401816025F03EFB25F0FAFC4C
:10537000BDE880400FF0E4BB10B5D1B192F800E079
:105380004FF0000CBEF1000F11D08BB273450ED957
:105390001446944614F8013F834208D06FEA0E0386
:1053A00004EB0E0219440B04E8D14FF0000C6046E8
:1053B00010BD4FF0000C604610BD0000002908BF72
:1053C000704746F27050C2F20000007C58B98878ED
:1053D0003C2202EA900040F2B812C2F200021058D9
:1053E000826808461047704746F270510022C2F2A8
:1053F0000001CA7508734AF28D200A74C0F20200D7
:1054000003F00AB846F27051C2F20001C97D0029CA
:1054100008BF7047022804BF00207047032808BF58
:10542000012070470221022808BF0121013818BF5E
:105430000846704780B582B0ADF806006320ADF82D
:105440000410ADF8020046F29450C2F20000D0F809
:105450009C106846884702B080BD000010B582B03D
:105460000C4623F02DF938B13621ADF804408DF803
:105470000210694623F09EFC02B010BDB0B584B0A6
:1054800005460846144623F01BF940B135218DF836
:105490000C5002948DF8061001A923F08BFC04B087
:1054A000B0BD000046F27051C2F20001C97D002972
:1054B00008BF7047002804BF02207047012808BFBA
:1054C0000320704710B5044606200FF01BFA002891
:1054D00008BF10BD01460471A320887046F27050C9
:1054E000C2F20000007BBDE810400FF03DBA0000A2
:1054F00040F2B8104FF20031C2F20000C0F20401D5
:10550000416270472DE9F04381B004462C20984653
:1055100016460F460FF0F6F9002804BF01B0BDE8AB
:10552000F0830546DDE9089039462C712880622019
:10553000A870681DFFF740F905F10B003146FFF731
:1055400071F905F11B004146FFF76CF946F2705006
:1055500085F82B902946C2F20000007B01B0BDE81F
:10556000F0430FF001BA000040F2B8104FF20C31D6
:10557000C2F20000C0F204018161704710B59AB018
:1055800046F270544FF2A421C2F20004C0F20401AA
:10559000A06040F2B810C2F20000006A884209D050
:1055A00002F05CFF442805D84FF0B270A16801906A
:1055B00001A888471AB010BDB0B5054610200C46AA
:1055C0000FF0A0F9002808BFB0BD014605804220B9
:1055D000887020686268A368486046F27050CB60AB
:1055E0008A60C2F20000007BBDE8B0400FF0BCB999
:1055F00080B50FF089FA40F2B8104FF22431C2F2B0
:105600000000C0F20401816025F0EEF9BDE88040A1
:105610000FF096BA0221022808BF0121013818BFF5
:105620000846704780B504200FF06CF9002808BFC9
:1056300080BD01462120887046F27050C2F2000001
:10564000007BBDE880400FF08FB90000F0B581B05D
:105650000746162015460C460FF054F9002804BFE3
:1056600001B0F0BD0475064607800420002DB0701F
:1056700004D0301D29462246FBF761FA304601B0BE
:10568000BDE8F0400EF0A8BBB0B5044604200D46BE
:105690000FF038F9002808BFB0BD0321C5700480A1
:1056A0008170BDE8B0400EF097BB0000F0B581B04E
:1056B0000746202016460C460FF024F9002804BFA8
:1056C00001B0F0BD05460780502031461A22A8706F
:1056D000281DFBF734FA46F27050AC772946C2F227
:1056E0000000007B01B0BDE8F0400FF03DB90000C4
:1056F000C0684DF68361C4F21B3100BAA0FB0112F1
:10570000910C43F609525143A0EB81107047000001
:1057100049F20020C2F200007047000046F2E86043
:10572000C2F200004068704746F2E860C2F2000032
:105730000068704746F2E8604EF6E041C2F20000B1
:10574000C0F20401C0E9001140F2B8104FF230314C
:10575000C2F20000C0F204014161704740F2B8108B
:105760004FF23C31C2F20000C0F204010162704706
:105770002DE9F04107461620984614460E460FF0D4
:10578000C1F8002808BFBDE8F081447506750546DC
:1057900007805120002EA87003D0281D4146FFF736
:1057A00041F846F270502946C2F20000007BBDE885
:1057B000F0410FF0D9B80000F0B581B005460820DF
:1057C0001C4617460E460FF09DF8002804BF01B096
:1057D000F0BD06990122477106710580827001F0C3
:1057E0000701C17104F00701817101B0BDE8F0400B
:1057F0000EF0F2BAF0B581B0054608201C461746F7
:105800000E460FF07FF8002804BF01B0F0BD0699E6
:105810000222477106710580827001F00701C17193
:1058200004F00701817101B0BDE8F0400EF0D4BA78
:10583000014649F200206022C2F20000FBF77FB966
:10584000B0B5044606200D460FF05CF8002808BFEE
:10585000B0BD0521057104808170BDE8B0400EF037
:10586000BBBA000010B5044680782C2801D02A2845
:1058700008D146F29450C2F20000D0F8901009B15D
:105880002046884746F27050C2F2000081682046E8
:10589000BDE8104008470000B0B514460D4622F0A0
:1058A00031FF002808BFB0BD0021002223468174CB
:1058B00005764EF6E0418089C0F20401BDE8B040B3
:1058C00004F0B2B82DE9F04FC3B080460078042848
:1058D00069D8CDF82480DFE800F0036A8CB6CD00EB
:1058E00092E8F810D2E90601C34608940A950B968F
:1058F0001097DDF830A14BF8243FC8F82840C8F8CD
:105900002C50C8F83060C8F83470C8F838C0C8F8EF
:105910003C0005930F900E91C8F84010644602F1C8
:1059200030074146BAF1000FD2E9080CD2E90A9ECD
:10593000E0CFD36B41F8640F0D90CDF830C04A46EC
:1059400001F11000C1F804C0C1E9029EE0C0A1F15C
:1059500020000493CB611191CDF848B00790A1F1DC
:105960006000069000F06581AB463D469AE88003F2
:105970000394DAF80C00DAE9044C0296DAF818100D
:10598000DAF81C601B97CDE91C892F465D46DDF8CF
:1059900048B0CDE91E04039CDDF82480CDE920C188
:1059A0002296029E4FE1012043B0BDE8F08FD8F867
:1059B0008400012208F14407411100F01F0053F850
:1059C000211002FA00F008F104030140B1FA81F25B
:1059D00018BF012103EB4110560907EB411103EBFE
:1059E000461207EB46130FF0B5FF0020022102F02C
:1059F000B1B9D8F88400012208F1040708F144067F
:105A0000411100F01F0053F8211002FA00F0084085
:105A1000B0FA80F118BF012007EB401206EB4013EB
:105A2000490907EB411006EB41110FF029F9D8F8AD
:105A3000840003210138C8F884000028C8BF012170
:105A4000002002F087B9186808F1040208F1440741
:105A500000F0010302EB431007EB431183F0010355
:105A600002EB431207EB43130FF074FF00200421F5
:105A700002F070B9CDE90712C346002500245BF897
:105A8000047F1868DBF82060F11BCDE91201DBF818
:105A90000400DBF82430A3EB00024FF0000038BF15
:105AA000013A9A42149288BF0125BE4238BF0124B0
:105AB0009A4218BF2C46DBF80830DBF82850EB1A66
:105AC000A3EB040E0023CDF854E0AE4588BF0123BC
:105AD00008BF2346DBF80C40DBF82C502C1BA4EB52
